{
  "_format": "hh-sol-artifact-1",
  "contractName": "MateOnchainImages",
  "sourceName": "contracts/MateOnchainImages.sol",
  "abi": [
    {
      "inputs": [
        {
          "internalType": "address",
          "name": "_onchainImageStorage",
          "type": "address"
        }
      ],
      "stateMutability": "nonpayable",
      "type": "constructor"
    },
    {
      "inputs": [
        {
          "internalType": "uint256[]",
          "name": "tokenIds",
          "type": "uint256[]"
        }
      ],
      "name": "getImages",
      "outputs": [
        {
          "internalType": "string[]",
          "name": "",
          "type": "string[]"
        }
      ],
      "stateMutability": "view",
      "type": "function"
    },
    {
      "inputs": [],
      "name": "onchainImageStorage",
      "outputs": [
        {
          "internalType": "contract OnchainImageStorage",
          "name": "",
          "type": "address"
        }
      ],
      "stateMutability": "view",
      "type": "function"
    }
  ],
  "bytecode": "0x608034607057601f6103fe38819003918201601f19168301916001600160401b03831184841017607557808492602094604052833981010312607057516001600160a01b03811690819003607057600080546001600160a01b031916919091179055604051610372908161008c8239f35b600080fd5b634e487b7160e01b600052604160045260246000fdfe6080604052600436101561001257600080fd5b60003560e01c806352d7a52e1461006057637005d9901461003257600080fd5b3461005b57600036600319011261005b576000546040516001600160a01b039091168152602090f35b600080fd5b3461005b57602036600319011261005b5760043567ffffffffffffffff811161005b573660238201121561005b57806004013567ffffffffffffffff811161005b573660248260051b8401011161005b576100ba816102fa565b916100c860405193846102c2565b818352601f196100d7836102fa565b0160005b81811061028e575050600080546001600160a01b0316905b8381101561020f5760006040516363c8bc6360e11b815260248360051b8601013560048201528181602481875afa918215610203578092610151575b50509060019161013f8288610312565b5261014a8187610312565b50016100f3565b9091503d8082843e61016381846102c2565b8201916020818403126101fb5780519067ffffffffffffffff82116101ff570182601f820112156101fb5780519167ffffffffffffffff83116101e757604051936101b8601f8501601f1916602001866102c2565b838552602084840101116101e4575082916101dc916020806001979601910161029f565b90918761012f565b80fd5b634e487b7160e01b81526041600452602490fd5b5080fd5b8280fd5b604051903d90823e3d90fd5b846040518091602082016020835281518091526040830190602060408260051b8601019301916000905b82821061024857505050500390f35b91936001919395506020808092603f198a820301865288516102758151809281855285808601910161029f565b601f801991011601019601920192018594939192610239565b8060606020809388010152016100db565b60005b8381106102b25750506000910152565b81810151838201526020016102a2565b90601f8019910116810190811067ffffffffffffffff8211176102e457604052565b634e487b7160e01b600052604160045260246000fd5b67ffffffffffffffff81116102e45760051b60200190565b80518210156103265760209160051b010190565b634e487b7160e01b600052603260045260246000fdfea2646970667358221220a6f4976d8fbf622b6fd2f05e3a1f8038c5fe3a6a7b8521f99b8f3b36b337b3ad64736f6c634300081c0033",
  "linkReferences": {},
  "deployedLinkReferences": {}
}